:030000000200C338
:0C00C300787FE4F6D8FD75812002010A68
:1002E900039F250D9949411F01191946154443409A
:0402F9000D0E000FD7
:05034800010A00C100E4
:100279008F1A120253851A80D2907F01120313C27A
:10028900917F0112031312030F12030FD2A57F01ED
:030299000203134A
:040228007D017C00D8
:10022C008F1AED4C6003120253851A80C2907F0125
:10023C00120313C2917F0112031312030F12030F47
:07024C00D2A57F010203139C
:100253007580FFC2907F01120313D2917F011203B5
:100263001312030F12030FD2A57F01120313E580AC
:0602730020E7EEAF80223F
:10014F00E4F580FDFC7F3812022C7F057E00120241
:10015F00A3E4FDFC7F3812022C7F057E001202A360
:10016F00E4FDFC7F3812022C7F057E001202A37F74
:10017F00381202287F081202287D017C007F0112AD
:10018F00022C7D017C007F0612022C7D017C007FFA
:04019F000C02022C20
:1002D0008B1953050153070FED6003430740430794
:0902E00080120228AF1902027914
:0801EF008F148D158A168B1781
:1001F700E4F51853150153140FE5172518F582E494
:100207003516F583E493FBD394194014E514D3947E
:100217000F50E6AD15AF141202D00518051480D99A
:0102270022B4
:07029C0012031B7FF07E003E
:1002A3007D0A7C3200DCFDDDF9EF1F70011E144E68
:0202B30070EEEB
:0102B5002226
:04030F00C2A57F0103
:070313007E0A00DEFDDFF9A8
:01031A0022C0
:1002FD00AD071FED600BE4FEEEC3940D50F20E80C2
:01030D00F7F8
:01030E0022CC
:0E0003007F307E75EF1FAC0670011E4C70F64C
:0100110022CC
:09031B00C292C293C294C2952261
:09032400D292C293D294C2952238
:09032D00C292D293C294D295222F
:09033600D292C293C294D2952226
:09033F00C292D293D294C295221D
:1001A30012031BEF24FE60181460201460281460EF
:1001B300302404703612029C1203249002EA802732
:1001C30012029C12032D9002EB801C12029C12035C
:1001D3003F9002EC801112029C1203369002ED80D4
:0C01E3000612031B9002E9E493F5802251
:03001300020016D2
:0D001600C0E0C0F0C083C082C0D075D00033
:10002300751300C2AA7F0F1202FD30B305D2AA02D4
:1000330000B820B3077F011202FD80F6E4FC7512BD
:100043000030B3077F011202FD80F620B3077F0162
:100053001202FD80F630B3127F011202FD0513E593
:1000630013C3941E40EFD2AA804B740B2CF8C0002C
:10007300E6FFC313D000F6E513C394084008740BDE
:100083002CF8E64480F67513000512E512C39408B4
:1000930040AF0CEC640470A6E50EF4650D6004D269
:1000A300AA80127A007B0BE4FDFF1201EF7C000CA7
:0500B300BC0AFCD2AA0A
:0B00B800D0D0D082D083D0F0D0E03256
:1002B600C20175080B7509B8D2AAD28AD2AF9002CC
:0A02C600E9E493F58012000380FBC9
:1000CF000202B6E493A3F8E493A34003F68001F28F
:1000DF0008DFF48029E493A3F85407240CC8C33332
:1000EF00C4540F4420C8834004F456800146F6DF01
:1000FF00E4800B0102040810204080900348E47E46
:10010F00019360BCA3FF543F30E509541FFEE493F5
:10011F00A360010ECF54C025E060A840B8E493A3BC
:10012F00FAE493A3F8E493A3C8C582C8CAC583CAE7
:10013F00F0A3C8C582C8CAC583CADFE9DEE780BE9F
:01034D0000AF
:00000001FF
