:030000000200BF3C
:0C00BF00787FE4F6D8FD75812002010670
:1002EC00039F250D9949411F011919461544434097
:0402FC000D0E000FD4
:05034B00010A00C100E1
:10027C008F1A120256851A80D2907F01120316C271
:10028C00917F01120316120312120312D2A57F01E1
:03029C0002031644
:04022B007D017C00D5
:10022F008F1AED4C6003120256851A80C2907F011F
:10023F00120316C2917F0112031612031212031238
:07024F00D2A57F0102031696
:100256007580FFC2907F01120316D2917F011203AF
:1002660016120312120312D2A57F01120316E5809D
:0602760020E7EEAF80223C
:10014B00E4F580FDFC7F3812022F7F057E00120242
:10015B00A6E4FDFC7F3812022F7F057E001202A65B
:10016B00E4FDFC7F3812022F7F057E001202A67F72
:10017B003812022B7F0812022B7D017C007F0112AB
:10018B00022F7D017C007F0612022F7D017C007FF8
:04019B000C02022F21
:1002D3008B1953050153070FED6003430740430791
:0902E3008012022BAF1902027C0B
:0701EB007A007B0BE4FDFF2D
:0801F2008F148D158A168B177E
:1001FA00E4F51853150153140FE5172518F582E491
:10020A003516F583E493FBD394194014E514D3947B
:10021A000F50E6AD15AF141202D30518051480D994
:01022A0022B1
:07029F0012031E7FF07E0038
:1002A6007D0A7C3200DCFDDDF9EF1F70011E144E65
:0202B60070EEE8
:0102B8002223
:04031200C2A57F0100
:070316007E0A00DEFDDFF9A5
:01031D0022BD
:10030000AD071FED600BE4FEEEC3940D50F20E80BE
:01031000F7F5
:0103110022C9
:0E0003007F307E75EF1FAC0670011E4C70F64C
:0100110022CC
:09031E00C292C293C294C295225E
:09032700D292C293D294C2952235
:09033000C292D293C294D295222C
:09033900D292C293C294D2952223
:09034200C292D293D294C295221A
:10019F0012031EEF24FE60181460201460281460F0
:1001AF00302404703612029F1203279002ED80272D
:1001BF0012029F1203309002EE801C12029F120354
:1001CF00429002EF801112029F1203399002F080C9
:0C01DF000612031E9002ECE493F580224F
:03001300020016D2
:0D001600C0E0C0F0C083C082C0D075D00033
:100023007513001201EBC2AA7F0F12030030B30550
:10003300D2AA0200B420B3077F0112030080F6E4C2
:10004300FC75120030B3077F0112030080F620B362
:10005300077F0112030080F630B3127F0112030001
:100063000513E513C3941E40EFD2AA8044740B2CEE
:10007300F8C000E6FFC313D000F6E513C3940840AD
:1000830008740B2CF8E64480F67513000512E5128C
:10009300C3940840AF0CEC640470A6E50EF4650D40
:1000A3006004D2AA800B1201EB7C000CBC0AFCD2C8
:0100B300AAA2
:0B00B400D0D0D082D083D0F0D0E0325A
:1002B900C20175080B7509B8D2AAD28AD2AF9002C9
:0A02C900ECE493F58012000380FBC3
:1000CB000202B9E493A3F8E493A34003F68001F290
:1000DB0008DFF48029E493A3F85407240CC8C33336
:1000EB00C4540F4420C8834004F456800146F6DF05
:1000FB00E4800B010204081020408090034BE47E47
:10010B00019360BCA3FF543F30E509541FFEE493F9
:10011B00A360010ECF54C025E060A840B8E493A3C0
:10012B00FAE493A3F8E493A3C8C582C8CAC583CAEB
:10013B00F0A3C8C582C8CAC583CADFE9DEE780BEA3
:0103500000AC
:00000001FF
