:100331003D3D52616E67652046696E6465723D3D63
:100341000030313233343536373839434D2053009C
:10035100524D73706565643A00000000004C4D73A6
:10036100706565643A000000000044697374616E51
:1003710063653A3030312E30636D00212121204FE9
:0C0381007574206F662072616E67650065
:10042A00012500013900013A00013800C182C18367
:10043A00022F000006310000000000000126000122
:10044A003700022B0000022D0000022100000223C7
:0A045A000000042700000000C100AC
:1004EF008F0E1204C9850E80D2907F0112061EC294
:1004FF00917F0112061E12061A12061AD2A57F014B
:03050F0002061EC3
:04049E007D017C0060
:1004A2008F0EED4C60031204C9850E80C2907F014D
:1004B20012061EC2917F0112061E12061A12061A97
:0704C200D2A57F0102061E16
:1004C9007580FFC2907F0112061ED2917F0112062C
:1004D9001E12061A12061AD2A57F0112061EE580FF
:0604E90020E7EEAF8022C7
:1003E200E4F580FDFC7F381204A21205ADE4FDFCA9
:1003F2007F381204A21205ADE4FDFC7F381204A27C
:100402001205AD7F3812049E7F0812049E7D017C86
:10041200007F011204A27D017C007F061204A27DEE
:08042200017C007F0C0204A222
:05055300E493FB7D01B3
:100558008B0D53050153070FED6003430740430715
:090568008012049EAF0D0204EFA5
:080465008F088D098A0A8B0B38
:10046D00E4F50C53090153080EE50B250CF582E458
:10047D00350AF583E493FBD394194014E508D3941E
:10048D000F50E6AD09AF08120558050C050880D9C7
:01049D00223C
:0405AD007F057E0048
:1005B1007D0A7C3200DCFDDDF9EF1F70011E144E57
:0205C10070EEDA
:0105C3002215
:04061A00C2A57F01F5
:07061E007E0A00DEFDDFF99A
:0106250022B2
:10053300E4FDFCC3ED9FEC9E5015E4FBFA0BBB00FE
:0F054300010ABA07F8BBD0F50DBD00010C80E42A
:010552002286
:0F05C40075390C75380CD292C293D294C295221D
:0F05D30075390C75380CC292D293C294D295220E
:0F05E20075390575380FD294C295C292D2932203
:0F05F100753910753808D292C293C294D29522F0
:09062600C292C293C294C2952253
:10057100300318E525D395395004D2968002C296EE
:0E058100E525C394144006E4F52522C2962217
:10058F00300218E53AD395385004D2978002C297BB
:0E059F00E53AC394144006E4F53A22C29722CE
:03001B00020512C9
:10051200C0E0C0D0758DFC758B180530E5307002D7
:10052200052F0525053A12057112058FD0D0D0E0AE
:010532003296
:03000B0002019758
:10019700C0E0C0F0C0D075D010758CF8758A3005F6
:1001A70026E526C394FA5003020241752600E52C82
:1001B70025E0F522E52B33F521752B00752C00FE84
:1001C700AF227C007D6412038D8F31AE21AF227C7C
:1001D700007D6412038DAA14AB157D0A7C00AF1352
:1001E700AE1212038D8F327D0A7C00AF13AE12124E
:1001F700038D8D33E52E25E0F524E52D33F52375A5
:100207002D00752E00FEAF247C007D6412038D8FB8
:1002170034AE23AF247C007D6412038DAA14AB1582
:100227007D0A7C00AF13AE1212038D8F357D0A7CD9
:1002370000AF13AE1212038D8D36D0D0D0F0D0E0C0
:010247003284
:10001E00900351E493FB7D01E4FF120558900352C7
:10002E007F011205539003537F0212055390035420
:10003E00E493FB7D017F03120558900355E493FB77
:10004E007D017F04120558900356E493FB7D017FDA
:10005E0005120558900357E493FB7D017F061205A8
:10006E0058900358E493FB7D017F07120558E53144
:10007E0090034293FB7D017F08120558E5329003F1
:10008E004293FB7D017F09120558E533900342939D
:10009E00FB7D017F0A12055890034CE493FB7D0112
:1000AE007F0B12055890034DE493FB7D017F0C12DC
:1000BE0005587B2F7D017F0D12055890034FE49359
:1000CE00FB7D017F0E12055890035EE493FBE4FD69
:1000DE00FF12055890035FE493FBE4FD7F011205C8
:1000EE0058900360E493FBE4FD7F021205589003E1
:1000FE0061E493FBE4FD7F03120558900362E493E1
:10010E00FBE4FD7F04120558900363E493FBE4FDCA
:10011E007F05120558900364E493FBE4FD7F0612FD
:10012E000558900365E493FBE4FD7F07120558E53F
:10013E003490034293FBE4FD7F08120558E5359099
:10014E00034293FBE4FD7F09120558E53690034206
:10015E0093FBE4FD7F0A12055890034CE493FBE4F5
:10016E00FD7F0B12055890034DE493FBE4FD7F0CCD
:10017E001205587B2FE4FD7F0D12055890034FE4B6
:09018E0093FBE4FD7F0E0205580D
:03000300020600F2
:0D060000C0E0052CE52C7002052BD0E03287
:0300130002060DD5
:0D060D00C0E0052EE52E7002052DD0E03274
:1002D4007F907E011205B11203E21205AD758911FA
:1002E400758CF8758A30D28CD2A9758DFC758B18F3
:1002F400D28ED2ABD2A8D288C289D2AAD28AC28BD9
:10030400D2AF12001E20B70820B6051205C480F231
:1003140030B70620B6031205E230B60620B7031242
:0D03240005F130B6DD30B7DA12062680D5BF
:03000000020248B1
:0C024800787FE4F6D8FD75813A02028F41
:10038D00BC000BBE0029EF8DF084FFADF022E4CC54
:10039D00F875F008EF2FFFEE33FEEC33FCEE9DEC1D
:1003AD00984005FCEE9DFE0FD5F0E9E4CEFD22ED63
:1003BD00F8F5F0EE8420D21CFEADF075F008EF2FAD
:1003CD00FFED33FD4007985006D5F0F222C398FD9E
:0503DD000FD5F0EA223B
:100254000202D4E493A3F8E493A34003F68001F2EA
:1002640008DFF48029E493A3F85407240CC8C333AB
:10027400C4540F4420C8834004F456800146F6DF7A
:10028400E4800B010204081020408090042AE47EDC
:10029400019360BCA3FF543F30E509541FFEE4936F
:1002A400A360010ECF54C025E060A840B8E493A336
:1002B400FAE493A3F8E493A3C8C582C8CAC583CA61
:1002C400F0A3C8C582C8CAC583CADFE9DEE780BE19
:010464000097
:00000001FF
