:100271003D3D52616E67652046696E6465723D3D24
:100281000030313233343536373839434D2053005D
:1002910064697374616E63653A000000004C4D73CC
:1002A100706565643A000000000044697374616E12
:1002B10063653A3030312E30636D00212121204FAA
:0C02C1007574206F662072616E67650026
:10047100010800011C00011D00011A00C180C18199
:10048100021200000614000000000000021000002B
:10042C008F1F120406851F80D2907F01120012C20A
:10043C00917F0112001212000E12000ED2A57F0144
:03044C0002001299
:0403DB007D017C0024
:1003DF008F1FED4C6003120406851F80C2907F01B2
:1003EF00120012C2917F0112001212000E12000EA3
:0703FF00D2A57F01020012EC
:100406007580FFC2907F01120012D2917F01120007
:100416001212000E12000ED2A57F01120012E58004
:0604260020E7EEAF80228A
:10032200E4F580FDFC7F381203DF120526E4FDFCB4
:100332007F381203DF120526E4FDFC7F381203DF4B
:100342001205267F381203DB7F081203DB7D017C56
:10035200007F011203DF7D017C007F061203DF7D37
:08036200017C007F0C0203DFA7
:0504B200E493FB7D0155
:1004B7008B1E53050153070FED60034307404307A6
:0904C700801203DBAF1E02042CBD
:08036A008F218D228A238B24D0
:10037200E4F52553220153210EE5242525F582E4D7
:100382003523F583E493FBD394194014E521D394E8
:100392000F50E6AD22AF211204B70525052180D901
:0103A2002238
:040526007F057E00CF
:10052A007D0A7C3200DCFDDDF9EF1F70011E144EDE
:02053A0070EE61
:01053C00229C
:04000E00C2A57F0107
:070012007E0A00DEFDDFF9AC
:0100190022C4
:10049200E4FDFCC3ED9FEC9E5015E4FBFA0BBB00A0
:0F04A200010ABA07F8BBD0F50DBD00010C80E4CC
:0104B1002228
:0F053D00751C0A751A0AD292C293D294C29522E3
:0F054C00751C0C751A0CC292D293C294D29522D0
:0F055B00751C0C751A05D294C295C292D29322C8
:0F056A00751C05751A0CD292C293C294D29522B9
:09057900C292C293C294C2952201
:1004D000300118E508D3951C5004D2968002C296CC
:0E04E000E508C394144006E4F50822C29622F3
:1004EE00300018E51DD3951A5004D2978002C2979A
:0E04FE00E51DC394144006E4F51D22C29722AA
:03000300DFFE22FB
:0D044F007F1412045C75090CE4F50E7F901B
:10045C00AE07AF061EEF600C7FF51200037FF5129E
:05046C00000380EE22F8
:03001E001201EEDE
:10002100900291E493FB7D01E4FF1204B7900292E8
:100031007F011204B29002937F021204B2900294E3
:10004100E493FB7D017F031204B7900295E493FBD7
:100051007D017F041204B7900296E493FB7D017F3A
:10006100051204B7900297E493FB7D017F06120409
:10007100B7900298E493FB7D017F071204B79002C9
:1000810099E493FB7D017F081204B7E51490028285
:1000910093FB7D017F091204B7E51590028293FB62
:1000A1007D017F0A1204B7E51690028293FB7D0160
:1000B1007F0B1204B790028CE493FB7D017F0C123D
:0F00C10004B790028DE493FB7D017F0D0204B71D
:10050C00438911E4F58DF58B758CFF758A9CD2AB04
:0A051C00D2A9D2AFD28C75A88222BA
:1001EE00D2A17F0A120003C2A130A0FDD28E20A0A0
:1001FE00FDC28EAF8DEFFEAD8B7C00E42DF511ECC4
:10020E003EF510FEAF117D3A1202CD8E108F117C8D
:10021E00007D641202CD8F14AE10AF117C007D6490
:10022E001202CDAA04AB057D0A7C00AF03AE02120A
:10023E0002CD8F157D0A7C00AF03AE021202CD8D6A
:10024E0016C3E5119419E51094004003751B01C304
:10025E00E5119419E51094005003E4F51BE4F58DB7
:03026E00F58B22EB
:1000D0007F907E0112052A12032212052675090C53
:1000E000E4F50E12050C12001E85110B7F1412048C
:1000F0005CE50BD3941E400312053DE50BC3941E33
:1001000050E412057975090412045712001E851176
:100110000A12044F7509141204571201EE1200213D
:1001200085110C12044FE50CC3950A500812056A9C
:100130007F6412045CE50CC3950A400812055B7FDE
:100140006412045CE50CC3941E509BE50AC3941E24
:10015000509412054C7F5012045C7F5A12045C02CA
:0201600000E6B7
:03001B00020006DA
:03000600C2A03263
:03000B000203A34A
:1003A300C0E0C0D0758CFF758A9CE50EC3950950DB
:1003B30004D2A68002C2A6050EE50EB4C803750ECC
:1003C300000513E513700205120508051D1204D07C
:0803D3001204EED0D0D0E0329C
:0300000002016298
:0C016200787FE4F6D8FD7581250201A924
:1002CD00BC000BBE0029EF8DF084FFADF022E4CC15
:1002DD00F875F008EF2FFFEE33FEEC33FCEE9DECDE
:1002ED00984005FCEE9DFE0FD5F0E9E4CEFD22ED24
:1002FD00F8F5F0EE8420D21CFEADF075F008EF2F6E
:10030D00FFED33FD4007985006D5F0F222C398FD5E
:05031D000FD5F0EA22FB
:10016E000200D0E493A3F8E493A34003F68001F2D7
:10017E0008DFF48029E493A3F85407240CC8C33392
:10018E00C4540F4420C8834004F456800146F6DF61
:10019E00E4800B0102040810204080900471E47E7C
:1001AE00019360BCA3FF543F30E509541FFEE49356
:1001BE00A360010ECF54C025E060A840B8E493A31D
:1001CE00FAE493A3F8E493A3C8C582C8CAC583CA48
:1001DE00F0A3C8C582C8CAC583CADFE9DEE780BE00
:01049100006A
:00000001FF
