:1005B1003D3D52616E67652046696E6465723D3DE1
:1005C10000303132333435363738392E2D4D4469C8
:1005D1007374616E63653A3030302E30636D002183
:1005E1002121204F7574206F662072616E6765004E
:10068500040E0000000002080000040A000000003B
:02069500C100A2
:100642008F1A12061C851A80D2907F011206C3C22D
:10065200917F011206C31206BF1206BFD2A57F0107
:030662000206C3CA
:0405F1007D017C000C
:1005F5008F1AED4C600312061C851A80C2907F018C
:100605001206C3C2917F011206C31206BF1206BFAE
:07061500D2A57F010206C31C
:10061C007580FFC2907F011206C3D2917F01120632
:10062C00C31206BF1206BFD2A57F011206C3E58016
:06063C0020E7EEAF802272
:10052800E4F580FDFC7F381205F5120003E4FDFCBC
:100538007F381205F5120003E4FDFC7F381205F53B
:100548001200037F381205F17F081205F17D017C46
:10055800007F011205F57D017C007F061205F57DFF
:08056800017C007F0C0205F587
:070665009005C293FB7D012B
:10066C008B1953050153070FED60034307404307F4
:09067C00801205F1AF19020642DB
:080570007A057BCF7D01E4FF59
:080578008F148D158A168B17F4
:10058000E4F51853150153140FE5172518F582E407
:100590003516F583E493FBD394194014E514D394F2
:1005A0000F50E6AD15AF1412066C0518051480D96E
:0105B0002228
:040003007F057E00F7
:100007007D0A7C3200DCFDDDF9EF1F70011E144E06
:0200170070EE89
:0100190022C4
:0406BF00C2A57F0150
:0706C3007E0A00DEFDDFF9F5
:0106CA00220D
:0806E800D2A6E4F580C2A622AF
:0D0698008F148D15D292C293D294C2952278
:0906DF00C292C293C294C295229A
:0D06A5008F148D15C292D293C294C295227B
:0D06B2008F148D15C292C293C294D295226E
:1002D000AF8DEFFEAD8B7C00E42DF509EC3EF5080B
:1002E000E4F58DF58BE50925E0FFE50833FEE48FA5
:1002F0000D8E0CF50BF50AAD0BAC0A1201247B7BBD
:100300007A14792E783E12001E1201628F0D8E0C27
:100310008D0B8C0AE47F907E01FDFCAB0DAA0CA92D
:100320000BA80AD31202BF501F2001061206DF12CB
:100330000003D201C2A37F327E00120007D2A37D48
:10034000787F781206A58009C2017DB47FB41206B9
:100350009830B50A20B4077D787F781206B230B4A1
:100360000A20B5077D787F781206A5E47F887E1382
:10037000FDFCAB0DAA0CA90BA80AC31202BF5003C7
:1003800030000DC2007A057BE07D01E4FF020578B4
:10039000E47B0AFAF9F8AF0DAE0CAD0BAC0A120211
:1003A0001FAF038F0EE47B0AFAF9F8AF0DAE0CAD68
:1003B0000BAC0A12021FE47B0AFAF9F812021FAF13
:1003C000038F0FE47B64FAF9F8AF0DAE0CAD0BAC04
:1003D0000A12021FE47B0AFAF9F812021FAF038F18
:1003E00010E47BE87A03F9F8AF0DAE0CAD0BAC0A64
:1003F00012021F8F11120570E5117F09120665E5C3
:10040000107F0A120665E50F9005C293FB7D017F00
:100410000B12066C9005CCE493FB7D017F0C120659
:100420006CE50E9005C293FB7D017F0D12066C22D8
:03001B000206F0EA
:0506F000D200C2A0329F
:0A06CB00D28E20A0FDC28E0202D0E4
:0A06D500D2A17F021206C3C2A122C7
:1004BC001206E87F907E0112000712052812000335
:1004CC007A057BB1E4FDFF120578120570438910A3
:1004DC00D2AFE4F58DF58BD2ABC201E4FB7F017E8C
:1004EC000012000720B2F40BBB32F2C2A37F327EA3
:1004FC0000120007D2A3D2A01206D57512037513F1
:10050C00B730A0031206CBE513151370021512D3E6
:0C051C00E5139400E512940050E780DA2B
:10001E00EC4D6011E8497017ED33EC3304600DE4DC
:10002E00FCFFFEFD22E933E8330470F80201CE1224
:10003E00019958046009E4CC248150062850090225
:10004E0001D82840030201D5C0E0EB4A7044B980C4
:10005E0006D0E0FB0201C4EF4E701CBD8008EBFF22
:10006E00EAFEE9FD80EBE98DF0A4FEE5F002010762
:10007E00E9CDF9EAFEEBFFEF89F0A4FCE5F0CE89BD
:10008E00F0A42EFFE435F0CD89F0A42DFEE435F07A
:10009E008067EF4E7005BD80D780C3EF8BF0A4ACA8
:1000AE00F0EE8BF0A42CFCE435F0F8EF8AF0A42CE3
:1000BE00E5F038FCE433CB8DF0A42CFCE5F03BF8F6
:1000CE00EE8AF0A42CFCE5F038F8E433CF89F0A4E6
:1000DE002CFCE5F038CF3400CE89F0A42FFFE5F0EC
:1000EE003EFEE433C98DF0A42EFEE5F039CD8AF044
:1000FE00A42FFFE5F03EFEE43DFD33D0E0FB5007BC
:10010E000BBB000F0201D8EC2CFCEF33FFEE33FEDD
:06011E00ED33FD0201B00B
:1001240075F020800E75F010800575F0087D007E56
:10013400007F003392D530D5031202B1EC33401066
:10014400EF33FFEE33FEED33FDEC33FCD5F0ED225F
:0E015400E5F0247EA2D513CC92E7CDCEFF229B
:10016200EDD2E7CD33EC3392D524814006E4FFFE95
:10017200FDFC22FCE4CFCECDCC24E0501174FF80F4
:10018200EDC3CC13CCCD13CDCE13CECF13CF047091
:07019200F030D5DE0202B1DE
:10019900E9D2E7C933E833F892D5EDD2E7CD33ECAC
:0701A90033FC5002B2D52225
:1001B000EC30E7100FBF000C0EBE00080DBD0004B0
:1001C0000BEB6014A2D5EB13FCED92E7FD2274FF5C
:1001D000FCFDFEFF22E480F8A2D574FF13FC7D80B5
:0301E000E480EFC9
:03000000020430C7
:0C043000787FE4F6D8FD75812002047787
:1001E30075F008758200EF2FFFEE33FECD33CDCCD3
:1001F30033CCC58233C5829BED9AEC99E582984056
:100203000CF582EE9BFEED9AFDEC99FC0FD5F0D632
:10021300E4CEFBE4CDFAE4CCF9A88222B800C1B95C
:100223000059BA002DEC8BF084CFCECDFCE5F0CB9A
:10023300F97818EF2FFFEE33FEED33FDEC33FCEBD3
:1002430033FB10D703994004EB99FB0FD8E5E4F98E
:10025300FA227818EF2FFFEE33FEED33FDEC33FC7B
:10026300C933C910D7059BE99A4007EC9BFCE99A6F
:10027300F90FD8E0E4C9FAE4CCFB2275F010EF2FB4
:10028300FFEE33FEED33FDCC33CCC833C810D707B4
:100293009BEC9AE899400AED9BFDEC9AFCE899F8EF
:0E02A3000FD5F0DAE4CDFBE4CCFAE4C8F92282
:0E02B100C3E49FFFE49EFEE49DFDE49CFC225E
:1002BF00EB9FF5F0EA9E42F0E99D42F0E89C45F095
:0102CF00220C
:10043C000204BCE493A3F8E493A34003F68001F216
:10044C0008DFF48029E493A3F85407240CC8C333C1
:10045C00C4540F4420C8834004F456800146F6DF90
:10046C00E4800B0102040810204080900685E47E95
:10047C00019360BCA3FF543F30E509541FFEE49385
:10048C00A360010ECF54C025E060A840B8E493A34C
:10049C00FAE493A3F8E493A3C8C582C8CAC583CA77
:1004AC00F0A3C8C582C8CAC583CADFE9DEE780BE2F
:010697000062
:00000001FF
