:030000000201BE3C
:0C01BE00787FE4F6D8FD75810F0201D2B5
:10008F003D3D52616E67652046696E6465723D3D08
:10009F0000303132333435363738392E2D4D4469EF
:1000AF007374616E63653A3030302E30636D0021AA
:1000BF002121204F7574206F662072616E67650075
:10019100D3EF9400EE9400400F7D667C03DCFEDD1E
:0801A100FAEF1F70EB1E80E86D
:0101A9002233
:100108007F0112011FC2917F0112011FC2A57F0149
:0701180012011FC2A57F01C7
:0D011F00EFD3940040077E03DEFE1F80F347
:01012C0022B0
:1001AA008F0F120151850F80D290120108D2A57FBC
:0401BA000102011F1E
:0C012D007F057E00120191E4FDFC7F388C
:100139008F0FED4C6003120151850F80C29012019F
:0801490008D2A57F0102011F8D
:100151007580FFC2907F0112011FD2917F011201B0
:100161001F120114D2A57F0112011FE58020E7F1C2
:03017100AF80223A
:10004F00E4F58012013512012D12012D7F057E007E
:10005F001201917D017C007F381201397D017C00F6
:10006F007F081201397D017C007F011201397D016A
:10007F007C007F061201397D017C007F0C02013963
:100174008B0E53050153070FED60034307404307FC
:0D018400807D017C00120139AF0E0201AA3E
:0800CF008F098D0A8A0B8B0CCE
:1000D700E4F50D530A0153090FE50C250DF582E4EC
:1000E700350BF583E493FBD394194014E509D394B6
:1000F7000F50E6AD0AAF09120174050D050980D945
:0101070022D5
:0801CA00D2A6E4F580C2A622D2
:100003001201CA7F907E0112019112004F7F057E7B
:10001300001201917A007B8FE4FDFF1200CF7A007A
:090023007BAD7D01E4FF1200CF6A
:10002C0075080D7FE87E03120191E5089000A093FE
:10003C00FB7D017F0F1201741508E508D394005065
:03004C00E280DD72
:0301D20002000325
:00000001FF
